{
  "_format": "hh-sol-artifact-1",
  "contractName": "Crowdfund",
  "sourceName": "contracts/Crowdfund.sol",
  "abi": [
    {
      "inputs": [],
      "stateMutability": "nonpayable",
      "type": "constructor"
    },
    {
      "anonymous": false,
      "inputs": [
        {
          "indexed": false,
          "internalType": "address",
          "name": "newContributor",
          "type": "address"
        },
        {
          "indexed": false,
          "internalType": "uint256",
          "name": "offer",
          "type": "uint256"
        },
        {
          "indexed": false,
          "internalType": "uint256",
          "name": "project",
          "type": "uint256"
        }
      ],
      "name": "NewContributor",
      "type": "event"
    },
    {
      "anonymous": false,
      "inputs": [
        {
          "indexed": false,
          "internalType": "uint256",
          "name": "_index",
          "type": "uint256"
        }
      ],
      "name": "ProjectCompleted",
      "type": "event"
    },
    {
      "anonymous": false,
      "inputs": [
        {
          "indexed": false,
          "internalType": "uint256",
          "name": "_index",
          "type": "uint256"
        },
        {
          "indexed": false,
          "internalType": "string",
          "name": "new_description",
          "type": "string"
        }
      ],
      "name": "ProjectDescriptionModified",
      "type": "event"
    },
    {
      "anonymous": false,
      "inputs": [
        {
          "indexed": false,
          "internalType": "address",
          "name": "_owner",
          "type": "address"
        },
        {
          "indexed": false,
          "internalType": "string",
          "name": "_title",
          "type": "string"
        },
        {
          "indexed": false,
          "internalType": "string",
          "name": "description",
          "type": "string"
        },
        {
          "indexed": false,
          "internalType": "uint256",
          "name": "_to_reach",
          "type": "uint256"
        },
        {
          "indexed": false,
          "internalType": "uint256",
          "name": "_raised",
          "type": "uint256"
        },
        {
          "indexed": false,
          "internalType": "uint256",
          "name": "_deadline",
          "type": "uint256"
        },
        {
          "indexed": false,
          "internalType": "uint256",
          "name": "_totalDonations",
          "type": "uint256"
        },
        {
          "indexed": false,
          "internalType": "bool",
          "name": "_complete",
          "type": "bool"
        }
      ],
      "name": "ProjectProposed",
      "type": "event"
    },
    {
      "anonymous": false,
      "inputs": [
        {
          "indexed": false,
          "internalType": "uint256",
          "name": "_index",
          "type": "uint256"
        },
        {
          "indexed": false,
          "internalType": "string",
          "name": "new_title",
          "type": "string"
        }
      ],
      "name": "ProjectTitleModified",
      "type": "event"
    },
    {
      "anonymous": false,
      "inputs": [
        {
          "indexed": false,
          "internalType": "uint256",
          "name": "_index",
          "type": "uint256"
        },
        {
          "indexed": false,
          "internalType": "uint256",
          "name": "_amount",
          "type": "uint256"
        }
      ],
      "name": "ProjectToReachModified",
      "type": "event"
    },
    {
      "anonymous": false,
      "inputs": [
        {
          "indexed": false,
          "internalType": "address",
          "name": "_address",
          "type": "address"
        },
        {
          "indexed": false,
          "internalType": "uint256",
          "name": "amount",
          "type": "uint256"
        }
      ],
      "name": "RefundDone",
      "type": "event"
    },
    {
      "inputs": [
        {
          "internalType": "string",
          "name": "_description",
          "type": "string"
        },
        {
          "internalType": "uint256",
          "name": "_index",
          "type": "uint256"
        }
      ],
      "name": "changeDescription",
      "outputs": [],
      "stateMutability": "nonpayable",
      "type": "function"
    },
    {
      "inputs": [
        {
          "internalType": "string",
          "name": "_title",
          "type": "string"
        },
        {
          "internalType": "uint256",
          "name": "_index",
          "type": "uint256"
        }
      ],
      "name": "changeTitle",
      "outputs": [],
      "stateMutability": "nonpayable",
      "type": "function"
    },
    {
      "inputs": [
        {
          "internalType": "uint256",
          "name": "_amount",
          "type": "uint256"
        },
        {
          "internalType": "uint256",
          "name": "_index",
          "type": "uint256"
        }
      ],
      "name": "changeToReach",
      "outputs": [],
      "stateMutability": "nonpayable",
      "type": "function"
    },
    {
      "inputs": [
        {
          "internalType": "uint256",
          "name": "_index",
          "type": "uint256"
        }
      ],
      "name": "contribute",
      "outputs": [],
      "stateMutability": "payable",
      "type": "function"
    },
    {
      "inputs": [
        {
          "internalType": "address",
          "name": "",
          "type": "address"
        },
        {
          "internalType": "uint256",
          "name": "",
          "type": "uint256"
        }
      ],
      "name": "contributors",
      "outputs": [
        {
          "internalType": "uint256",
          "name": "",
          "type": "uint256"
        }
      ],
      "stateMutability": "view",
      "type": "function"
    },
    {
      "inputs": [],
      "name": "getAllProjects",
      "outputs": [
        {
          "components": [
            {
              "internalType": "address",
              "name": "owner",
              "type": "address"
            },
            {
              "internalType": "string",
              "name": "title",
              "type": "string"
            },
            {
              "internalType": "string",
              "name": "description",
              "type": "string"
            },
            {
              "internalType": "uint256",
              "name": "to_reach",
              "type": "uint256"
            },
            {
              "internalType": "uint256",
              "name": "raised",
              "type": "uint256"
            },
            {
              "internalType": "uint256",
              "name": "deadline",
              "type": "uint256"
            },
            {
              "internalType": "uint256",
              "name": "totalDonations",
              "type": "uint256"
            },
            {
              "internalType": "bool",
              "name": "complete",
              "type": "bool"
            }
          ],
          "internalType": "struct Crowdfund.Project[]",
          "name": "",
          "type": "tuple[]"
        }
      ],
      "stateMutability": "view",
      "type": "function"
    },
    {
      "inputs": [],
      "name": "getArrayLength",
      "outputs": [
        {
          "internalType": "uint256",
          "name": "",
          "type": "uint256"
        }
      ],
      "stateMutability": "view",
      "type": "function"
    },
    {
      "inputs": [
        {
          "internalType": "address",
          "name": "_contributor",
          "type": "address"
        },
        {
          "internalType": "uint256",
          "name": "_index",
          "type": "uint256"
        }
      ],
      "name": "getContributions",
      "outputs": [
        {
          "internalType": "uint256",
          "name": "",
          "type": "uint256"
        }
      ],
      "stateMutability": "view",
      "type": "function"
    },
    {
      "inputs": [
        {
          "internalType": "address",
          "name": "_address",
          "type": "address"
        },
        {
          "internalType": "uint256",
          "name": "index",
          "type": "uint256"
        }
      ],
      "name": "getContributor",
      "outputs": [
        {
          "internalType": "uint256",
          "name": "",
          "type": "uint256"
        }
      ],
      "stateMutability": "view",
      "type": "function"
    },
    {
      "inputs": [
        {
          "internalType": "uint256",
          "name": "index",
          "type": "uint256"
        }
      ],
      "name": "getProject",
      "outputs": [
        {
          "components": [
            {
              "internalType": "address",
              "name": "owner",
              "type": "address"
            },
            {
              "internalType": "string",
              "name": "title",
              "type": "string"
            },
            {
              "internalType": "string",
              "name": "description",
              "type": "string"
            },
            {
              "internalType": "uint256",
              "name": "to_reach",
              "type": "uint256"
            },
            {
              "internalType": "uint256",
              "name": "raised",
              "type": "uint256"
            },
            {
              "internalType": "uint256",
              "name": "deadline",
              "type": "uint256"
            },
            {
              "internalType": "uint256",
              "name": "totalDonations",
              "type": "uint256"
            },
            {
              "internalType": "bool",
              "name": "complete",
              "type": "bool"
            }
          ],
          "internalType": "struct Crowdfund.Project",
          "name": "",
          "type": "tuple"
        }
      ],
      "stateMutability": "view",
      "type": "function"
    },
    {
      "inputs": [
        {
          "internalType": "uint256",
          "name": "_index",
          "type": "uint256"
        }
      ],
      "name": "getRefund",
      "outputs": [],
      "stateMutability": "nonpayable",
      "type": "function"
    },
    {
      "inputs": [
        {
          "internalType": "uint256",
          "name": "_index",
          "type": "uint256"
        }
      ],
      "name": "getTotalDonations",
      "outputs": [
        {
          "internalType": "uint256",
          "name": "",
          "type": "uint256"
        }
      ],
      "stateMutability": "view",
      "type": "function"
    },
    {
      "inputs": [
        {
          "internalType": "uint256",
          "name": "",
          "type": "uint256"
        }
      ],
      "name": "projects",
      "outputs": [
        {
          "internalType": "address",
          "name": "owner",
          "type": "address"
        },
        {
          "internalType": "string",
          "name": "title",
          "type": "string"
        },
        {
          "internalType": "string",
          "name": "description",
          "type": "string"
        },
        {
          "internalType": "uint256",
          "name": "to_reach",
          "type": "uint256"
        },
        {
          "internalType": "uint256",
          "name": "raised",
          "type": "uint256"
        },
        {
          "internalType": "uint256",
          "name": "deadline",
          "type": "uint256"
        },
        {
          "internalType": "uint256",
          "name": "totalDonations",
          "type": "uint256"
        },
        {
          "internalType": "bool",
          "name": "complete",
          "type": "bool"
        }
      ],
      "stateMutability": "view",
      "type": "function"
    },
    {
      "inputs": [
        {
          "internalType": "string",
          "name": "_title",
          "type": "string"
        },
        {
          "internalType": "string",
          "name": "_description",
          "type": "string"
        },
        {
          "internalType": "uint256",
          "name": "_to_reach",
          "type": "uint256"
        },
        {
          "internalType": "uint256",
          "name": "_deadline",
          "type": "uint256"
        }
      ],
      "name": "proposeProject",
      "outputs": [],
      "stateMutability": "nonpayable",
      "type": "function"
    },
    {
      "inputs": [
        {
          "internalType": "uint256",
          "name": "_index",
          "type": "uint256"
        }
      ],
      "name": "withdrawDonations",
      "outputs": [],
      "stateMutability": "nonpayable",
      "type": "function"
    }
  ],
  "bytecode": "0x60806040523480156200001157600080fd5b506200005d6040518060400160405280601381526020017f436f6e74726174746f206465706c6f7961746f000000000000000000000000008152506200006360201b620015641760201c565b620001e5565b62000103816040516024016200007a9190620001c1565b6040516020818303038152906040527f41304fac000000000000000000000000000000000000000000000000000000007bffffffffffffffffffffffffffffffffffffffffffffffffffffffff19166020820180517bffffffffffffffffffffffffffffffffffffffffffffffffffffffff83818316178352505050506200010660201b60201c565b50565b60006a636f6e736f6c652e6c6f679050600080835160208501845afa505050565b600081519050919050565b600082825260208201905092915050565b60005b838110156200016357808201518184015260208101905062000146565b60008484015250505050565b6000601f19601f8301169050919050565b60006200018d8262000127565b62000199818562000132565b9350620001ab81856020860162000143565b620001b6816200016f565b840191505092915050565b60006020820190508181036000830152620001dd818462000180565b905092915050565b61246180620001f56000396000f3fe6080604052600436106100e85760003560e01c8063a7c570f01161008a578063c1cbbca711610059578063c1cbbca71461030b578063d2f0be9914610327578063e38d877414610350578063f0f3f2c81461038d576100e8565b8063a7c570f01461023f578063aac4e53a14610268578063b8956cd4146102a5578063bb7fb08b146102ce576100e8565b806343b09dc0116100c657806343b09dc01461018557806373d659b3146101ae57806380d03829146101eb578063a08e4dff14610216576100e8565b80630849cc99146100ed578063107046bd14610118578063388a7ec11461015c575b600080fd5b3480156100f957600080fd5b506101026103ca565b60405161010f9190611694565b60405180910390f35b34801561012457600080fd5b5061013f600480360381019061013a91906116ef565b6103d6565b604051610153989796959493929190611808565b60405180910390f35b34801561016857600080fd5b50610183600480360381019061017e91906116ef565b61056b565b005b34801561019157600080fd5b506101ac60048036038101906101a791906119c9565b610697565b005b3480156101ba57600080fd5b506101d560048036038101906101d09190611a94565b610840565b6040516101e29190611694565b60405180910390f35b3480156101f757600080fd5b50610200610865565b60405161020d9190611cc4565b60405180910390f35b34801561022257600080fd5b5061023d60048036038101906102389190611ce6565b610a82565b005b34801561024b57600080fd5b5061026660048036038101906102619190611d42565b610b73565b005b34801561027457600080fd5b5061028f600480360381019061028a9190611a94565b610c6e565b60405161029c9190611694565b60405180910390f35b3480156102b157600080fd5b506102cc60048036038101906102c79190611ce6565b610cc9565b005b3480156102da57600080fd5b506102f560048036038101906102f09190611a94565b610dba565b6040516103029190611694565b60405180910390f35b610325600480360381019061032091906116ef565b610e15565b005b34801561033357600080fd5b5061034e600480360381019061034991906116ef565b61107c565b005b34801561035c57600080fd5b50610377600480360381019061037291906116ef565b61133c565b6040516103849190611694565b60405180910390f35b34801561039957600080fd5b506103b460048036038101906103af91906116ef565b61136a565b6040516103c19190611e39565b60405180910390f35b60008080549050905090565b600081815481106103e657600080fd5b90600052602060002090600802016000915090508060000160009054906101000a900473ffffffffffffffffffffffffffffffffffffffff169080600101805461042f90611e8a565b80601f016020809104026020016040519081016040528092919081815260200182805461045b90611e8a565b80156104a85780601f1061047d576101008083540402835291602001916104a8565b820191906000526020600020905b81548152906001019060200180831161048b57829003601f168201915b5050505050908060020180546104bd90611e8a565b80601f01602080910402602001604051908101604052809291908181526020018280546104e990611e8a565b80156105365780601f1061050b57610100808354040283529160200191610536565b820191906000526020600020905b81548152906001019060200180831161051957829003601f168201915b5050505050908060030154908060040154908060050154908060060154908060070160009054906101000a900460ff16905088565b33816000818154811061058157610580611ebb565b5b906000526020600020906008020160000160009054906101000a900473ffffffffffffffffffffffffffffffffffffffff1673ffffffffffffffffffffffffffffffffffffffff168273ffffffffffffffffffffffffffffffffffffffff16146105ea57600080fd5b600083815481106105fe576105fd611ebb565b5b906000526020600020906008020160070160009054906101000a900460ff1661062657600080fd5b3373ffffffffffffffffffffffffffffffffffffffff166108fc6000858154811061065457610653611ebb565b5b9060005260206000209060080201600401549081150290604051600060405180830381858888f19350505050158015610691573d6000803e3d6000fd5b50505050565b60006040518061010001604052803373ffffffffffffffffffffffffffffffffffffffff1681526020018681526020018581526020018481526020016000815260200162093a80846106e99190611f19565b426106f49190611f5b565b815260200160008152602001600015158152509050600081908060018154018082558091505060019003906000526020600020906008020160009091909190915060008201518160000160006101000a81548173ffffffffffffffffffffffffffffffffffffffff021916908373ffffffffffffffffffffffffffffffffffffffff1602179055506020820151816001019081610791919061213b565b5060408201518160020190816107a7919061213b565b50606082015181600301556080820151816004015560a0820151816005015560c0820151816006015560e08201518160070160006101000a81548160ff02191690831515021790555050507f2f65658f3305c6059ff41c5de6a808ee3176ddee0f7016fd32e3cd70b8b0f5e033868686600087600080604051610831989796959493929190612248565b60405180910390a15050505050565b6001602052816000526040600020602052806000526040600020600091509150505481565b60606000805480602002602001604051908101604052809291908181526020016000905b82821015610a795783829060005260206000209060080201604051806101000160405290816000820160009054906101000a900473ffffffffffffffffffffffffffffffffffffffff1673ffffffffffffffffffffffffffffffffffffffff1673ffffffffffffffffffffffffffffffffffffffff16815260200160018201805461091390611e8a565b80601f016020809104026020016040519081016040528092919081815260200182805461093f90611e8a565b801561098c5780601f106109615761010080835404028352916020019161098c565b820191906000526020600020905b81548152906001019060200180831161096f57829003601f168201915b505050505081526020016002820180546109a590611e8a565b80601f01602080910402602001604051908101604052809291908181526020018280546109d190611e8a565b8015610a1e5780601f106109f357610100808354040283529160200191610a1e565b820191906000526020600020905b815481529060010190602001808311610a0157829003601f168201915b50505050508152602001600382015481526020016004820154815260200160058201548152602001600682015481526020016007820160009054906101000a900460ff16151515158152505081526020019060010190610889565b50505050905090565b338160008181548110610a9857610a97611ebb565b5b906000526020600020906008020160000160009054906101000a900473ffffffffffffffffffffffffffffffffffffffff1673ffffffffffffffffffffffffffffffffffffffff168273ffffffffffffffffffffffffffffffffffffffff1614610b0157600080fd5b8360008481548110610b1657610b15611ebb565b5b90600052602060002090600802016001019081610b33919061213b565b507f2dcd9f14a5c11235e16848dc9685c9dd1656ee817498fe6b55a3bea5508abe9e8385604051610b659291906122d4565b60405180910390a150505050565b338160008181548110610b8957610b88611ebb565b5b906000526020600020906008020160000160009054906101000a900473ffffffffffffffffffffffffffffffffffffffff1673ffffffffffffffffffffffffffffffffffffffff168273ffffffffffffffffffffffffffffffffffffffff1614610bf257600080fd5b670de0b6b3a764000084610c069190611f19565b60008481548110610c1a57610c19611ebb565b5b9060005260206000209060080201600301819055507f1d62973c9e212607eaafd44afcb6a2ae9939e6241ae6b3fbb68b9bb9ed966cfc8385604051610c60929190612304565b60405180910390a150505050565b6000600160008473ffffffffffffffffffffffffffffffffffffffff1673ffffffffffffffffffffffffffffffffffffffff168152602001908152602001600020600083815260200190815260200160002054905092915050565b338160008181548110610cdf57610cde611ebb565b5b906000526020600020906008020160000160009054906101000a900473ffffffffffffffffffffffffffffffffffffffff1673ffffffffffffffffffffffffffffffffffffffff168273ffffffffffffffffffffffffffffffffffffffff1614610d4857600080fd5b8360008481548110610d5d57610d5c611ebb565b5b90600052602060002090600802016002019081610d7a919061213b565b507f8813fd671bbbe62c57c1c31fb9d635d553fbfb64230af42daa40bfca4442cd4b8385604051610dac9291906122d4565b60405180910390a150505050565b6000600160008473ffffffffffffffffffffffffffffffffffffffff1673ffffffffffffffffffffffffffffffffffffffff168152602001908152602001600020600083815260200190815260200160002054905092915050565b8060008181548110610e2a57610e29611ebb565b5b906000526020600020906008020160050154421115610e4857600080fd5b6000151560008381548110610e6057610e5f611ebb565b5b906000526020600020906008020160070160009054906101000a900460ff16151514610e8b57600080fd5b60003411610e9857600080fd5b3460008381548110610ead57610eac611ebb565b5b90600052602060002090600802016004016000828254610ecd9190611f5b565b9250508190555034600160003373ffffffffffffffffffffffffffffffffffffffff1673ffffffffffffffffffffffffffffffffffffffff16815260200190815260200160002060008481526020019081526020016000206000828254610f349190611f5b565b9250508190555060008281548110610f4f57610f4e611ebb565b5b90600052602060002090600802016003015460008381548110610f7557610f74611ebb565b5b9060005260206000209060080201600401541061100257600160008381548110610fa257610fa1611ebb565b5b906000526020600020906008020160070160006101000a81548160ff0219169083151502179055507f60d8df137e489b6216738e436244ca4700bd6d0c8371d3c8d9c80b54538111b982604051610ff99190611694565b60405180910390a15b6000828154811061101657611015611ebb565b5b906000526020600020906008020160060160008154809291906110389061232d565b91905055507fb7108398ab4ff288e60bd1779e7c961d0f3ec78687e57ae7c7a793e5667a979333348460405161107093929190612375565b60405180910390a15050565b600081815481106110905761108f611ebb565b5b906000526020600020906008020160070160009054906101000a900460ff1615806110df5750600081815481106110ca576110c9611ebb565b5b90600052602060002090600802016005015442115b6110e857600080fd5b6000600160003373ffffffffffffffffffffffffffffffffffffffff1673ffffffffffffffffffffffffffffffffffffffff1681526020019081526020016000206000838152602001908152602001600020540361114557600080fd5b600160003373ffffffffffffffffffffffffffffffffffffffff1673ffffffffffffffffffffffffffffffffffffffff168152602001908152602001600020600082815260200190815260200160002054600082815481106111aa576111a9611ebb565b5b906000526020600020906008020160060160008282546111ca91906123ac565b925050819055506000600160003373ffffffffffffffffffffffffffffffffffffffff1673ffffffffffffffffffffffffffffffffffffffff1681526020019081526020016000206000838152602001908152602001600020549050806000838154811061123b5761123a611ebb565b5b9060005260206000209060080201600401600082825461125b91906123ac565b925050819055506000600160003373ffffffffffffffffffffffffffffffffffffffff1673ffffffffffffffffffffffffffffffffffffffff1681526020019081526020016000206000848152602001908152602001600020819055503373ffffffffffffffffffffffffffffffffffffffff166108fc829081150290604051600060405180830381858888f193505050501580156112fe573d6000803e3d6000fd5b507f8e62a2a5ac2dc0d73898f7177a0032f3a8b8e836501a8844f822106393157b6833826040516113309291906123e0565b60405180910390a15050565b600080828154811061135157611350611ebb565b5b9060005260206000209060080201600601549050919050565b61137261161e565b6000828154811061138657611385611ebb565b5b9060005260206000209060080201604051806101000160405290816000820160009054906101000a900473ffffffffffffffffffffffffffffffffffffffff1673ffffffffffffffffffffffffffffffffffffffff1673ffffffffffffffffffffffffffffffffffffffff16815260200160018201805461140690611e8a565b80601f016020809104026020016040519081016040528092919081815260200182805461143290611e8a565b801561147f5780601f106114545761010080835404028352916020019161147f565b820191906000526020600020905b81548152906001019060200180831161146257829003601f168201915b5050505050815260200160028201805461149890611e8a565b80601f01602080910402602001604051908101604052809291908181526020018280546114c490611e8a565b80156115115780601f106114e657610100808354040283529160200191611511565b820191906000526020600020905b8154815290600101906020018083116114f457829003601f168201915b50505050508152602001600382015481526020016004820154815260200160058201548152602001600682015481526020016007820160009054906101000a900460ff1615151515815250509050919050565b6115fa816040516024016115789190612409565b6040516020818303038152906040527f41304fac000000000000000000000000000000000000000000000000000000007bffffffffffffffffffffffffffffffffffffffffffffffffffffffff19166020820180517bffffffffffffffffffffffffffffffffffffffffffffffffffffffff83818316178352505050506115fd565b50565b60006a636f6e736f6c652e6c6f679050600080835160208501845afa505050565b604051806101000160405280600073ffffffffffffffffffffffffffffffffffffffff1681526020016060815260200160608152602001600081526020016000815260200160008152602001600081526020016000151581525090565b6000819050919050565b61168e8161167b565b82525050565b60006020820190506116a96000830184611685565b92915050565b6000604051905090565b600080fd5b600080fd5b6116cc8161167b565b81146116d757600080fd5b50565b6000813590506116e9816116c3565b92915050565b600060208284031215611705576117046116b9565b5b6000611713848285016116da565b91505092915050565b600073ffffffffffffffffffffffffffffffffffffffff82169050919050565b60006117478261171c565b9050919050565b6117578161173c565b82525050565b600081519050919050565b600082825260208201905092915050565b60005b8381101561179757808201518184015260208101905061177c565b60008484015250505050565b6000601f19601f8301169050919050565b60006117bf8261175d565b6117c98185611768565b93506117d9818560208601611779565b6117e2816117a3565b840191505092915050565b60008115159050919050565b611802816117ed565b82525050565b60006101008201905061181e600083018b61174e565b8181036020830152611830818a6117b4565b9050818103604083015261184481896117b4565b90506118536060830188611685565b6118606080830187611685565b61186d60a0830186611685565b61187a60c0830185611685565b61188760e08301846117f9565b9998505050505050505050565b600080fd5b600080fd5b7f4e487b7100000000000000000000000000000000000000000000000000000000600052604160045260246000fd5b6118d6826117a3565b810181811067ffffffffffffffff821117156118f5576118f461189e565b5b80604052505050565b60006119086116af565b905061191482826118cd565b919050565b600067ffffffffffffffff8211156119345761193361189e565b5b61193d826117a3565b9050602081019050919050565b82818337600083830152505050565b600061196c61196784611919565b6118fe565b90508281526020810184848401111561198857611987611899565b5b61199384828561194a565b509392505050565b600082601f8301126119b0576119af611894565b5b81356119c0848260208601611959565b91505092915050565b600080600080608085870312156119e3576119e26116b9565b5b600085013567ffffffffffffffff811115611a0157611a006116be565b5b611a0d8782880161199b565b945050602085013567ffffffffffffffff811115611a2e57611a2d6116be565b5b611a3a8782880161199b565b9350506040611a4b878288016116da565b9250506060611a5c878288016116da565b91505092959194509250565b611a718161173c565b8114611a7c57600080fd5b50565b600081359050611a8e81611a68565b92915050565b60008060408385031215611aab57611aaa6116b9565b5b6000611ab985828601611a7f565b9250506020611aca858286016116da565b9150509250929050565b600081519050919050565b600082825260208201905092915050565b6000819050602082019050919050565b611b098161173c565b82525050565b600082825260208201905092915050565b6000611b2b8261175d565b611b358185611b0f565b9350611b45818560208601611779565b611b4e816117a3565b840191505092915050565b611b628161167b565b82525050565b611b71816117ed565b82525050565b600061010083016000830151611b906000860182611b00565b5060208301518482036020860152611ba88282611b20565b91505060408301518482036040860152611bc28282611b20565b9150506060830151611bd76060860182611b59565b506080830151611bea6080860182611b59565b5060a0830151611bfd60a0860182611b59565b5060c0830151611c1060c0860182611b59565b5060e0830151611c2360e0860182611b68565b508091505092915050565b6000611c3a8383611b77565b905092915050565b6000602082019050919050565b6000611c5a82611ad4565b611c648185611adf565b935083602082028501611c7685611af0565b8060005b85811015611cb25784840389528151611c938582611c2e565b9450611c9e83611c42565b925060208a01995050600181019050611c7a565b50829750879550505050505092915050565b60006020820190508181036000830152611cde8184611c4f565b905092915050565b60008060408385031215611cfd57611cfc6116b9565b5b600083013567ffffffffffffffff811115611d1b57611d1a6116be565b5b611d278582860161199b565b9250506020611d38858286016116da565b9150509250929050565b60008060408385031215611d5957611d586116b9565b5b6000611d67858286016116da565b9250506020611d78858286016116da565b9150509250929050565b600061010083016000830151611d9b6000860182611b00565b5060208301518482036020860152611db38282611b20565b91505060408301518482036040860152611dcd8282611b20565b9150506060830151611de26060860182611b59565b506080830151611df56080860182611b59565b5060a0830151611e0860a0860182611b59565b5060c0830151611e1b60c0860182611b59565b5060e0830151611e2e60e0860182611b68565b508091505092915050565b60006020820190508181036000830152611e538184611d82565b905092915050565b7f4e487b7100000000000000000000000000000000000000000000000000000000600052602260045260246000fd5b60006002820490506001821680611ea257607f821691505b602082108103611eb557611eb4611e5b565b5b50919050565b7f4e487b7100000000000000000000000000000000000000000000000000000000600052603260045260246000fd5b7f4e487b7100000000000000000000000000000000000000000000000000000000600052601160045260246000fd5b6000611f248261167b565b9150611f2f8361167b565b9250828202611f3d8161167b565b91508282048414831517611f5457611f53611eea565b5b5092915050565b6000611f668261167b565b9150611f718361167b565b9250828201905080821115611f8957611f88611eea565b5b92915050565b60008190508160005260206000209050919050565b60006020601f8301049050919050565b600082821b905092915050565b600060088302611ff17fffffffffffffffffffffffffffffffffffffffffffffffffffffffffffffffff82611fb4565b611ffb8683611fb4565b95508019841693508086168417925050509392505050565b6000819050919050565b600061203861203361202e8461167b565b612013565b61167b565b9050919050565b6000819050919050565b6120528361201d565b61206661205e8261203f565b848454611fc1565b825550505050565b600090565b61207b61206e565b612086818484612049565b505050565b5b818110156120aa5761209f600082612073565b60018101905061208c565b5050565b601f8211156120ef576120c081611f8f565b6120c984611fa4565b810160208510156120d8578190505b6120ec6120e485611fa4565b83018261208b565b50505b505050565b600082821c905092915050565b6000612112600019846008026120f4565b1980831691505092915050565b600061212b8383612101565b9150826002028217905092915050565b6121448261175d565b67ffffffffffffffff81111561215d5761215c61189e565b5b6121678254611e8a565b6121728282856120ae565b600060209050601f8311600181146121a55760008415612193578287015190505b61219d858261211f565b865550612205565b601f1984166121b386611f8f565b60005b828110156121db578489015182556001820191506020850194506020810190506121b6565b868310156121f857848901516121f4601f891682612101565b8355505b6001600288020188555050505b505050505050565b6000819050919050565b600061223261222d6122288461220d565b612013565b61167b565b9050919050565b61224281612217565b82525050565b60006101008201905061225e600083018b61174e565b8181036020830152612270818a6117b4565b9050818103604083015261228481896117b4565b90506122936060830188611685565b6122a06080830187612239565b6122ad60a0830186611685565b6122ba60c0830185612239565b6122c760e08301846117f9565b9998505050505050505050565b60006040820190506122e96000830185611685565b81810360208301526122fb81846117b4565b90509392505050565b60006040820190506123196000830185611685565b6123266020830184611685565b9392505050565b60006123388261167b565b91507fffffffffffffffffffffffffffffffffffffffffffffffffffffffffffffffff820361236a57612369611eea565b5b600182019050919050565b600060608201905061238a600083018661174e565b6123976020830185611685565b6123a46040830184611685565b949350505050565b60006123b78261167b565b91506123c28361167b565b92508282039050818111156123da576123d9611eea565b5b92915050565b60006040820190506123f5600083018561174e565b6124026020830184611685565b9392505050565b6000602082019050818103600083015261242381846117b4565b90509291505056fea26469706673582212201559b15bdcef854b1d948b192eabd6d2e39bd5647381169ede7cb6793d9604e664736f6c63430008120033",
  "linkReferences": {},
  "deployedLinkReferences": {}
}