{
  "_format": "hh-sol-artifact-1",
  "contractName": "Crowdfund",
  "sourceName": "contracts/Crowdfund.sol",
  "abi": [
    {
      "inputs": [],
      "stateMutability": "nonpayable",
      "type": "constructor"
    },
    {
      "anonymous": false,
      "inputs": [
        {
          "indexed": false,
          "internalType": "address",
          "name": "newContributor",
          "type": "address"
        },
        {
          "indexed": false,
          "internalType": "uint256",
          "name": "offer",
          "type": "uint256"
        },
        {
          "indexed": false,
          "internalType": "uint256",
          "name": "project",
          "type": "uint256"
        }
      ],
      "name": "NewContributor",
      "type": "event"
    },
    {
      "anonymous": false,
      "inputs": [
        {
          "indexed": false,
          "internalType": "uint256",
          "name": "_index",
          "type": "uint256"
        }
      ],
      "name": "ProjectCompleted",
      "type": "event"
    },
    {
      "anonymous": false,
      "inputs": [
        {
          "indexed": false,
          "internalType": "uint256",
          "name": "_index",
          "type": "uint256"
        },
        {
          "indexed": false,
          "internalType": "string",
          "name": "new_description",
          "type": "string"
        }
      ],
      "name": "ProjectDescriptionModified",
      "type": "event"
    },
    {
      "anonymous": false,
      "inputs": [
        {
          "indexed": false,
          "internalType": "address",
          "name": "_owner",
          "type": "address"
        },
        {
          "indexed": false,
          "internalType": "string",
          "name": "_title",
          "type": "string"
        },
        {
          "indexed": false,
          "internalType": "string",
          "name": "description",
          "type": "string"
        },
        {
          "indexed": false,
          "internalType": "uint256",
          "name": "_to_reach",
          "type": "uint256"
        },
        {
          "indexed": false,
          "internalType": "uint256",
          "name": "_raised",
          "type": "uint256"
        },
        {
          "indexed": false,
          "internalType": "uint256",
          "name": "_deadline",
          "type": "uint256"
        },
        {
          "indexed": false,
          "internalType": "uint256",
          "name": "_totalDonations",
          "type": "uint256"
        },
        {
          "indexed": false,
          "internalType": "bool",
          "name": "_complete",
          "type": "bool"
        }
      ],
      "name": "ProjectProposed",
      "type": "event"
    },
    {
      "anonymous": false,
      "inputs": [
        {
          "indexed": false,
          "internalType": "uint256",
          "name": "_index",
          "type": "uint256"
        },
        {
          "indexed": false,
          "internalType": "string",
          "name": "new_title",
          "type": "string"
        }
      ],
      "name": "ProjectTitleModified",
      "type": "event"
    },
    {
      "anonymous": false,
      "inputs": [
        {
          "indexed": false,
          "internalType": "uint256",
          "name": "_index",
          "type": "uint256"
        },
        {
          "indexed": false,
          "internalType": "uint256",
          "name": "_amount",
          "type": "uint256"
        }
      ],
      "name": "ProjectToReachModified",
      "type": "event"
    },
    {
      "anonymous": false,
      "inputs": [
        {
          "indexed": false,
          "internalType": "address",
          "name": "_address",
          "type": "address"
        },
        {
          "indexed": false,
          "internalType": "uint256",
          "name": "amount",
          "type": "uint256"
        }
      ],
      "name": "RefundDone",
      "type": "event"
    },
    {
      "inputs": [
        {
          "internalType": "string",
          "name": "_description",
          "type": "string"
        },
        {
          "internalType": "uint256",
          "name": "_index",
          "type": "uint256"
        }
      ],
      "name": "changeDescription",
      "outputs": [],
      "stateMutability": "nonpayable",
      "type": "function"
    },
    {
      "inputs": [
        {
          "internalType": "string",
          "name": "_title",
          "type": "string"
        },
        {
          "internalType": "uint256",
          "name": "_index",
          "type": "uint256"
        }
      ],
      "name": "changeTitle",
      "outputs": [],
      "stateMutability": "nonpayable",
      "type": "function"
    },
    {
      "inputs": [
        {
          "internalType": "uint256",
          "name": "_amount",
          "type": "uint256"
        },
        {
          "internalType": "uint256",
          "name": "_index",
          "type": "uint256"
        }
      ],
      "name": "changeToReach",
      "outputs": [],
      "stateMutability": "nonpayable",
      "type": "function"
    },
    {
      "inputs": [
        {
          "internalType": "uint256",
          "name": "_index",
          "type": "uint256"
        }
      ],
      "name": "contribute",
      "outputs": [],
      "stateMutability": "payable",
      "type": "function"
    },
    {
      "inputs": [
        {
          "internalType": "address",
          "name": "",
          "type": "address"
        },
        {
          "internalType": "uint256",
          "name": "",
          "type": "uint256"
        }
      ],
      "name": "contributors",
      "outputs": [
        {
          "internalType": "uint256",
          "name": "",
          "type": "uint256"
        }
      ],
      "stateMutability": "view",
      "type": "function"
    },
    {
      "inputs": [],
      "name": "getAllProjects",
      "outputs": [
        {
          "components": [
            {
              "internalType": "address",
              "name": "owner",
              "type": "address"
            },
            {
              "internalType": "string",
              "name": "title",
              "type": "string"
            },
            {
              "internalType": "string",
              "name": "description",
              "type": "string"
            },
            {
              "internalType": "uint256",
              "name": "to_reach",
              "type": "uint256"
            },
            {
              "internalType": "uint256",
              "name": "raised",
              "type": "uint256"
            },
            {
              "internalType": "uint256",
              "name": "deadline",
              "type": "uint256"
            },
            {
              "internalType": "uint256",
              "name": "totalDonations",
              "type": "uint256"
            },
            {
              "internalType": "bool",
              "name": "complete",
              "type": "bool"
            }
          ],
          "internalType": "struct Crowdfund.Project[]",
          "name": "",
          "type": "tuple[]"
        }
      ],
      "stateMutability": "view",
      "type": "function"
    },
    {
      "inputs": [],
      "name": "getArrayLength",
      "outputs": [
        {
          "internalType": "uint256",
          "name": "",
          "type": "uint256"
        }
      ],
      "stateMutability": "view",
      "type": "function"
    },
    {
      "inputs": [
        {
          "internalType": "address",
          "name": "_contributor",
          "type": "address"
        },
        {
          "internalType": "uint256",
          "name": "_index",
          "type": "uint256"
        }
      ],
      "name": "getContributions",
      "outputs": [
        {
          "internalType": "uint256",
          "name": "",
          "type": "uint256"
        }
      ],
      "stateMutability": "view",
      "type": "function"
    },
    {
      "inputs": [
        {
          "internalType": "address",
          "name": "_address",
          "type": "address"
        },
        {
          "internalType": "uint256",
          "name": "index",
          "type": "uint256"
        }
      ],
      "name": "getContributor",
      "outputs": [
        {
          "internalType": "uint256",
          "name": "",
          "type": "uint256"
        }
      ],
      "stateMutability": "view",
      "type": "function"
    },
    {
      "inputs": [
        {
          "internalType": "uint256",
          "name": "index",
          "type": "uint256"
        }
      ],
      "name": "getProject",
      "outputs": [
        {
          "components": [
            {
              "internalType": "address",
              "name": "owner",
              "type": "address"
            },
            {
              "internalType": "string",
              "name": "title",
              "type": "string"
            },
            {
              "internalType": "string",
              "name": "description",
              "type": "string"
            },
            {
              "internalType": "uint256",
              "name": "to_reach",
              "type": "uint256"
            },
            {
              "internalType": "uint256",
              "name": "raised",
              "type": "uint256"
            },
            {
              "internalType": "uint256",
              "name": "deadline",
              "type": "uint256"
            },
            {
              "internalType": "uint256",
              "name": "totalDonations",
              "type": "uint256"
            },
            {
              "internalType": "bool",
              "name": "complete",
              "type": "bool"
            }
          ],
          "internalType": "struct Crowdfund.Project",
          "name": "",
          "type": "tuple"
        }
      ],
      "stateMutability": "view",
      "type": "function"
    },
    {
      "inputs": [
        {
          "internalType": "uint256",
          "name": "_index",
          "type": "uint256"
        }
      ],
      "name": "getRefund",
      "outputs": [],
      "stateMutability": "nonpayable",
      "type": "function"
    },
    {
      "inputs": [
        {
          "internalType": "uint256",
          "name": "_index",
          "type": "uint256"
        }
      ],
      "name": "getTotalDonations",
      "outputs": [
        {
          "internalType": "uint256",
          "name": "",
          "type": "uint256"
        }
      ],
      "stateMutability": "view",
      "type": "function"
    },
    {
      "inputs": [
        {
          "internalType": "uint256",
          "name": "",
          "type": "uint256"
        }
      ],
      "name": "projects",
      "outputs": [
        {
          "internalType": "address",
          "name": "owner",
          "type": "address"
        },
        {
          "internalType": "string",
          "name": "title",
          "type": "string"
        },
        {
          "internalType": "string",
          "name": "description",
          "type": "string"
        },
        {
          "internalType": "uint256",
          "name": "to_reach",
          "type": "uint256"
        },
        {
          "internalType": "uint256",
          "name": "raised",
          "type": "uint256"
        },
        {
          "internalType": "uint256",
          "name": "deadline",
          "type": "uint256"
        },
        {
          "internalType": "uint256",
          "name": "totalDonations",
          "type": "uint256"
        },
        {
          "internalType": "bool",
          "name": "complete",
          "type": "bool"
        }
      ],
      "stateMutability": "view",
      "type": "function"
    },
    {
      "inputs": [
        {
          "internalType": "string",
          "name": "_title",
          "type": "string"
        },
        {
          "internalType": "string",
          "name": "_description",
          "type": "string"
        },
        {
          "internalType": "uint256",
          "name": "_to_reach",
          "type": "uint256"
        },
        {
          "internalType": "uint256",
          "name": "_deadline",
          "type": "uint256"
        }
      ],
      "name": "proposeProject",
      "outputs": [],
      "stateMutability": "nonpayable",
      "type": "function"
    },
    {
      "inputs": [
        {
          "internalType": "uint256",
          "name": "_index",
          "type": "uint256"
        }
      ],
      "name": "withdrawDonations",
      "outputs": [],
      "stateMutability": "nonpayable",
      "type": "function"
    }
  ],
  "bytecode": "0x60806040523480156200001157600080fd5b506200005d6040518060400160405280601381526020017f436f6e74726174746f206465706c6f7961746f000000000000000000000000008152506200006360201b620015771760201c565b620001e5565b62000103816040516024016200007a9190620001c1565b6040516020818303038152906040527f41304fac000000000000000000000000000000000000000000000000000000007bffffffffffffffffffffffffffffffffffffffffffffffffffffffff19166020820180517bffffffffffffffffffffffffffffffffffffffffffffffffffffffff83818316178352505050506200010660201b60201c565b50565b60006a636f6e736f6c652e6c6f679050600080835160208501845afa505050565b600081519050919050565b600082825260208201905092915050565b60005b838110156200016357808201518184015260208101905062000146565b60008484015250505050565b6000601f19601f8301169050919050565b60006200018d8262000127565b62000199818562000132565b9350620001ab81856020860162000143565b620001b6816200016f565b840191505092915050565b60006020820190508181036000830152620001dd818462000180565b905092915050565b61247480620001f56000396000f3fe6080604052600436106100e85760003560e01c8063a7c570f01161008a578063c1cbbca711610059578063c1cbbca71461030b578063d2f0be9914610327578063e38d877414610350578063f0f3f2c81461038d576100e8565b8063a7c570f01461023f578063aac4e53a14610268578063b8956cd4146102a5578063bb7fb08b146102ce576100e8565b806343b09dc0116100c657806343b09dc01461018557806373d659b3146101ae57806380d03829146101eb578063a08e4dff14610216576100e8565b80630849cc99146100ed578063107046bd14610118578063388a7ec11461015c575b600080fd5b3480156100f957600080fd5b506101026103ca565b60405161010f91906116a7565b60405180910390f35b34801561012457600080fd5b5061013f600480360381019061013a9190611702565b6103d6565b60405161015398979695949392919061181b565b60405180910390f35b34801561016857600080fd5b50610183600480360381019061017e9190611702565b61056b565b005b34801561019157600080fd5b506101ac60048036038101906101a791906119dc565b610697565b005b3480156101ba57600080fd5b506101d560048036038101906101d09190611aa7565b610853565b6040516101e291906116a7565b60405180910390f35b3480156101f757600080fd5b50610200610878565b60405161020d9190611cd7565b60405180910390f35b34801561022257600080fd5b5061023d60048036038101906102389190611cf9565b610a95565b005b34801561024b57600080fd5b5061026660048036038101906102619190611d55565b610b86565b005b34801561027457600080fd5b5061028f600480360381019061028a9190611aa7565b610c81565b60405161029c91906116a7565b60405180910390f35b3480156102b157600080fd5b506102cc60048036038101906102c79190611cf9565b610cdc565b005b3480156102da57600080fd5b506102f560048036038101906102f09190611aa7565b610dcd565b60405161030291906116a7565b60405180910390f35b61032560048036038101906103209190611702565b610e28565b005b34801561033357600080fd5b5061034e60048036038101906103499190611702565b61108f565b005b34801561035c57600080fd5b5061037760048036038101906103729190611702565b61134f565b60405161038491906116a7565b60405180910390f35b34801561039957600080fd5b506103b460048036038101906103af9190611702565b61137d565b6040516103c19190611e4c565b60405180910390f35b60008080549050905090565b600081815481106103e657600080fd5b90600052602060002090600802016000915090508060000160009054906101000a900473ffffffffffffffffffffffffffffffffffffffff169080600101805461042f90611e9d565b80601f016020809104026020016040519081016040528092919081815260200182805461045b90611e9d565b80156104a85780601f1061047d576101008083540402835291602001916104a8565b820191906000526020600020905b81548152906001019060200180831161048b57829003601f168201915b5050505050908060020180546104bd90611e9d565b80601f01602080910402602001604051908101604052809291908181526020018280546104e990611e9d565b80156105365780601f1061050b57610100808354040283529160200191610536565b820191906000526020600020905b81548152906001019060200180831161051957829003601f168201915b5050505050908060030154908060040154908060050154908060060154908060070160009054906101000a900460ff16905088565b33816000818154811061058157610580611ece565b5b906000526020600020906008020160000160009054906101000a900473ffffffffffffffffffffffffffffffffffffffff1673ffffffffffffffffffffffffffffffffffffffff168273ffffffffffffffffffffffffffffffffffffffff16146105ea57600080fd5b600083815481106105fe576105fd611ece565b5b906000526020600020906008020160070160009054906101000a900460ff1661062657600080fd5b3373ffffffffffffffffffffffffffffffffffffffff166108fc6000858154811061065457610653611ece565b5b9060005260206000209060080201600401549081150290604051600060405180830381858888f19350505050158015610691573d6000803e3d6000fd5b50505050565b60006040518061010001604052803373ffffffffffffffffffffffffffffffffffffffff168152602001868152602001858152602001670de0b6b3a7640000856106e19190611f2c565b81526020016000815260200162093a80846106fc9190611f2c565b426107079190611f6e565b815260200160008152602001600015158152509050600081908060018154018082558091505060019003906000526020600020906008020160009091909190915060008201518160000160006101000a81548173ffffffffffffffffffffffffffffffffffffffff021916908373ffffffffffffffffffffffffffffffffffffffff16021790555060208201518160010190816107a4919061214e565b5060408201518160020190816107ba919061214e565b50606082015181600301556080820151816004015560a0820151816005015560c0820151816006015560e08201518160070160006101000a81548160ff02191690831515021790555050507f2f65658f3305c6059ff41c5de6a808ee3176ddee0f7016fd32e3cd70b8b0f5e03386868660008760008060405161084498979695949392919061225b565b60405180910390a15050505050565b6001602052816000526040600020602052806000526040600020600091509150505481565b60606000805480602002602001604051908101604052809291908181526020016000905b82821015610a8c5783829060005260206000209060080201604051806101000160405290816000820160009054906101000a900473ffffffffffffffffffffffffffffffffffffffff1673ffffffffffffffffffffffffffffffffffffffff1673ffffffffffffffffffffffffffffffffffffffff16815260200160018201805461092690611e9d565b80601f016020809104026020016040519081016040528092919081815260200182805461095290611e9d565b801561099f5780601f106109745761010080835404028352916020019161099f565b820191906000526020600020905b81548152906001019060200180831161098257829003601f168201915b505050505081526020016002820180546109b890611e9d565b80601f01602080910402602001604051908101604052809291908181526020018280546109e490611e9d565b8015610a315780601f10610a0657610100808354040283529160200191610a31565b820191906000526020600020905b815481529060010190602001808311610a1457829003601f168201915b50505050508152602001600382015481526020016004820154815260200160058201548152602001600682015481526020016007820160009054906101000a900460ff1615151515815250508152602001906001019061089c565b50505050905090565b338160008181548110610aab57610aaa611ece565b5b906000526020600020906008020160000160009054906101000a900473ffffffffffffffffffffffffffffffffffffffff1673ffffffffffffffffffffffffffffffffffffffff168273ffffffffffffffffffffffffffffffffffffffff1614610b1457600080fd5b8360008481548110610b2957610b28611ece565b5b90600052602060002090600802016001019081610b46919061214e565b507f2dcd9f14a5c11235e16848dc9685c9dd1656ee817498fe6b55a3bea5508abe9e8385604051610b789291906122e7565b60405180910390a150505050565b338160008181548110610b9c57610b9b611ece565b5b906000526020600020906008020160000160009054906101000a900473ffffffffffffffffffffffffffffffffffffffff1673ffffffffffffffffffffffffffffffffffffffff168273ffffffffffffffffffffffffffffffffffffffff1614610c0557600080fd5b670de0b6b3a764000084610c199190611f2c565b60008481548110610c2d57610c2c611ece565b5b9060005260206000209060080201600301819055507f1d62973c9e212607eaafd44afcb6a2ae9939e6241ae6b3fbb68b9bb9ed966cfc8385604051610c73929190612317565b60405180910390a150505050565b6000600160008473ffffffffffffffffffffffffffffffffffffffff1673ffffffffffffffffffffffffffffffffffffffff168152602001908152602001600020600083815260200190815260200160002054905092915050565b338160008181548110610cf257610cf1611ece565b5b906000526020600020906008020160000160009054906101000a900473ffffffffffffffffffffffffffffffffffffffff1673ffffffffffffffffffffffffffffffffffffffff168273ffffffffffffffffffffffffffffffffffffffff1614610d5b57600080fd5b8360008481548110610d7057610d6f611ece565b5b90600052602060002090600802016002019081610d8d919061214e565b507f8813fd671bbbe62c57c1c31fb9d635d553fbfb64230af42daa40bfca4442cd4b8385604051610dbf9291906122e7565b60405180910390a150505050565b6000600160008473ffffffffffffffffffffffffffffffffffffffff1673ffffffffffffffffffffffffffffffffffffffff168152602001908152602001600020600083815260200190815260200160002054905092915050565b8060008181548110610e3d57610e3c611ece565b5b906000526020600020906008020160050154421115610e5b57600080fd5b6000151560008381548110610e7357610e72611ece565b5b906000526020600020906008020160070160009054906101000a900460ff16151514610e9e57600080fd5b60003411610eab57600080fd5b3460008381548110610ec057610ebf611ece565b5b90600052602060002090600802016004016000828254610ee09190611f6e565b9250508190555034600160003373ffffffffffffffffffffffffffffffffffffffff1673ffffffffffffffffffffffffffffffffffffffff16815260200190815260200160002060008481526020019081526020016000206000828254610f479190611f6e565b9250508190555060008281548110610f6257610f61611ece565b5b90600052602060002090600802016003015460008381548110610f8857610f87611ece565b5b9060005260206000209060080201600401541061101557600160008381548110610fb557610fb4611ece565b5b906000526020600020906008020160070160006101000a81548160ff0219169083151502179055507f60d8df137e489b6216738e436244ca4700bd6d0c8371d3c8d9c80b54538111b98260405161100c91906116a7565b60405180910390a15b6000828154811061102957611028611ece565b5b9060005260206000209060080201600601600081548092919061104b90612340565b91905055507fb7108398ab4ff288e60bd1779e7c961d0f3ec78687e57ae7c7a793e5667a979333348460405161108393929190612388565b60405180910390a15050565b600081815481106110a3576110a2611ece565b5b906000526020600020906008020160070160009054906101000a900460ff1615806110f25750600081815481106110dd576110dc611ece565b5b90600052602060002090600802016005015442115b6110fb57600080fd5b6000600160003373ffffffffffffffffffffffffffffffffffffffff1673ffffffffffffffffffffffffffffffffffffffff1681526020019081526020016000206000838152602001908152602001600020540361115857600080fd5b600160003373ffffffffffffffffffffffffffffffffffffffff1673ffffffffffffffffffffffffffffffffffffffff168152602001908152602001600020600082815260200190815260200160002054600082815481106111bd576111bc611ece565b5b906000526020600020906008020160060160008282546111dd91906123bf565b925050819055506000600160003373ffffffffffffffffffffffffffffffffffffffff1673ffffffffffffffffffffffffffffffffffffffff1681526020019081526020016000206000838152602001908152602001600020549050806000838154811061124e5761124d611ece565b5b9060005260206000209060080201600401600082825461126e91906123bf565b925050819055506000600160003373ffffffffffffffffffffffffffffffffffffffff1673ffffffffffffffffffffffffffffffffffffffff1681526020019081526020016000206000848152602001908152602001600020819055503373ffffffffffffffffffffffffffffffffffffffff166108fc829081150290604051600060405180830381858888f19350505050158015611311573d6000803e3d6000fd5b507f8e62a2a5ac2dc0d73898f7177a0032f3a8b8e836501a8844f822106393157b6833826040516113439291906123f3565b60405180910390a15050565b600080828154811061136457611363611ece565b5b9060005260206000209060080201600601549050919050565b611385611631565b6000828154811061139957611398611ece565b5b9060005260206000209060080201604051806101000160405290816000820160009054906101000a900473ffffffffffffffffffffffffffffffffffffffff1673ffffffffffffffffffffffffffffffffffffffff1673ffffffffffffffffffffffffffffffffffffffff16815260200160018201805461141990611e9d565b80601f016020809104026020016040519081016040528092919081815260200182805461144590611e9d565b80156114925780601f1061146757610100808354040283529160200191611492565b820191906000526020600020905b81548152906001019060200180831161147557829003601f168201915b505050505081526020016002820180546114ab90611e9d565b80601f01602080910402602001604051908101604052809291908181526020018280546114d790611e9d565b80156115245780601f106114f957610100808354040283529160200191611524565b820191906000526020600020905b81548152906001019060200180831161150757829003601f168201915b50505050508152602001600382015481526020016004820154815260200160058201548152602001600682015481526020016007820160009054906101000a900460ff1615151515815250509050919050565b61160d8160405160240161158b919061241c565b6040516020818303038152906040527f41304fac000000000000000000000000000000000000000000000000000000007bffffffffffffffffffffffffffffffffffffffffffffffffffffffff19166020820180517bffffffffffffffffffffffffffffffffffffffffffffffffffffffff8381831617835250505050611610565b50565b60006a636f6e736f6c652e6c6f679050600080835160208501845afa505050565b604051806101000160405280600073ffffffffffffffffffffffffffffffffffffffff1681526020016060815260200160608152602001600081526020016000815260200160008152602001600081526020016000151581525090565b6000819050919050565b6116a18161168e565b82525050565b60006020820190506116bc6000830184611698565b92915050565b6000604051905090565b600080fd5b600080fd5b6116df8161168e565b81146116ea57600080fd5b50565b6000813590506116fc816116d6565b92915050565b600060208284031215611718576117176116cc565b5b6000611726848285016116ed565b91505092915050565b600073ffffffffffffffffffffffffffffffffffffffff82169050919050565b600061175a8261172f565b9050919050565b61176a8161174f565b82525050565b600081519050919050565b600082825260208201905092915050565b60005b838110156117aa57808201518184015260208101905061178f565b60008484015250505050565b6000601f19601f8301169050919050565b60006117d282611770565b6117dc818561177b565b93506117ec81856020860161178c565b6117f5816117b6565b840191505092915050565b60008115159050919050565b61181581611800565b82525050565b600061010082019050611831600083018b611761565b8181036020830152611843818a6117c7565b9050818103604083015261185781896117c7565b90506118666060830188611698565b6118736080830187611698565b61188060a0830186611698565b61188d60c0830185611698565b61189a60e083018461180c565b9998505050505050505050565b600080fd5b600080fd5b7f4e487b7100000000000000000000000000000000000000000000000000000000600052604160045260246000fd5b6118e9826117b6565b810181811067ffffffffffffffff82111715611908576119076118b1565b5b80604052505050565b600061191b6116c2565b905061192782826118e0565b919050565b600067ffffffffffffffff821115611947576119466118b1565b5b611950826117b6565b9050602081019050919050565b82818337600083830152505050565b600061197f61197a8461192c565b611911565b90508281526020810184848401111561199b5761199a6118ac565b5b6119a684828561195d565b509392505050565b600082601f8301126119c3576119c26118a7565b5b81356119d384826020860161196c565b91505092915050565b600080600080608085870312156119f6576119f56116cc565b5b600085013567ffffffffffffffff811115611a1457611a136116d1565b5b611a20878288016119ae565b945050602085013567ffffffffffffffff811115611a4157611a406116d1565b5b611a4d878288016119ae565b9350506040611a5e878288016116ed565b9250506060611a6f878288016116ed565b91505092959194509250565b611a848161174f565b8114611a8f57600080fd5b50565b600081359050611aa181611a7b565b92915050565b60008060408385031215611abe57611abd6116cc565b5b6000611acc85828601611a92565b9250506020611add858286016116ed565b9150509250929050565b600081519050919050565b600082825260208201905092915050565b6000819050602082019050919050565b611b1c8161174f565b82525050565b600082825260208201905092915050565b6000611b3e82611770565b611b488185611b22565b9350611b5881856020860161178c565b611b61816117b6565b840191505092915050565b611b758161168e565b82525050565b611b8481611800565b82525050565b600061010083016000830151611ba36000860182611b13565b5060208301518482036020860152611bbb8282611b33565b91505060408301518482036040860152611bd58282611b33565b9150506060830151611bea6060860182611b6c565b506080830151611bfd6080860182611b6c565b5060a0830151611c1060a0860182611b6c565b5060c0830151611c2360c0860182611b6c565b5060e0830151611c3660e0860182611b7b565b508091505092915050565b6000611c4d8383611b8a565b905092915050565b6000602082019050919050565b6000611c6d82611ae7565b611c778185611af2565b935083602082028501611c8985611b03565b8060005b85811015611cc55784840389528151611ca68582611c41565b9450611cb183611c55565b925060208a01995050600181019050611c8d565b50829750879550505050505092915050565b60006020820190508181036000830152611cf18184611c62565b905092915050565b60008060408385031215611d1057611d0f6116cc565b5b600083013567ffffffffffffffff811115611d2e57611d2d6116d1565b5b611d3a858286016119ae565b9250506020611d4b858286016116ed565b9150509250929050565b60008060408385031215611d6c57611d6b6116cc565b5b6000611d7a858286016116ed565b9250506020611d8b858286016116ed565b9150509250929050565b600061010083016000830151611dae6000860182611b13565b5060208301518482036020860152611dc68282611b33565b91505060408301518482036040860152611de08282611b33565b9150506060830151611df56060860182611b6c565b506080830151611e086080860182611b6c565b5060a0830151611e1b60a0860182611b6c565b5060c0830151611e2e60c0860182611b6c565b5060e0830151611e4160e0860182611b7b565b508091505092915050565b60006020820190508181036000830152611e668184611d95565b905092915050565b7f4e487b7100000000000000000000000000000000000000000000000000000000600052602260045260246000fd5b60006002820490506001821680611eb557607f821691505b602082108103611ec857611ec7611e6e565b5b50919050565b7f4e487b7100000000000000000000000000000000000000000000000000000000600052603260045260246000fd5b7f4e487b7100000000000000000000000000000000000000000000000000000000600052601160045260246000fd5b6000611f378261168e565b9150611f428361168e565b9250828202611f508161168e565b91508282048414831517611f6757611f66611efd565b5b5092915050565b6000611f798261168e565b9150611f848361168e565b9250828201905080821115611f9c57611f9b611efd565b5b92915050565b60008190508160005260206000209050919050565b60006020601f8301049050919050565b600082821b905092915050565b6000600883026120047fffffffffffffffffffffffffffffffffffffffffffffffffffffffffffffffff82611fc7565b61200e8683611fc7565b95508019841693508086168417925050509392505050565b6000819050919050565b600061204b6120466120418461168e565b612026565b61168e565b9050919050565b6000819050919050565b61206583612030565b61207961207182612052565b848454611fd4565b825550505050565b600090565b61208e612081565b61209981848461205c565b505050565b5b818110156120bd576120b2600082612086565b60018101905061209f565b5050565b601f821115612102576120d381611fa2565b6120dc84611fb7565b810160208510156120eb578190505b6120ff6120f785611fb7565b83018261209e565b50505b505050565b600082821c905092915050565b600061212560001984600802612107565b1980831691505092915050565b600061213e8383612114565b9150826002028217905092915050565b61215782611770565b67ffffffffffffffff8111156121705761216f6118b1565b5b61217a8254611e9d565b6121858282856120c1565b600060209050601f8311600181146121b857600084156121a6578287015190505b6121b08582612132565b865550612218565b601f1984166121c686611fa2565b60005b828110156121ee578489015182556001820191506020850194506020810190506121c9565b8683101561220b5784890151612207601f891682612114565b8355505b6001600288020188555050505b505050505050565b6000819050919050565b600061224561224061223b84612220565b612026565b61168e565b9050919050565b6122558161222a565b82525050565b600061010082019050612271600083018b611761565b8181036020830152612283818a6117c7565b9050818103604083015261229781896117c7565b90506122a66060830188611698565b6122b3608083018761224c565b6122c060a0830186611698565b6122cd60c083018561224c565b6122da60e083018461180c565b9998505050505050505050565b60006040820190506122fc6000830185611698565b818103602083015261230e81846117c7565b90509392505050565b600060408201905061232c6000830185611698565b6123396020830184611698565b9392505050565b600061234b8261168e565b91507fffffffffffffffffffffffffffffffffffffffffffffffffffffffffffffffff820361237d5761237c611efd565b5b600182019050919050565b600060608201905061239d6000830186611761565b6123aa6020830185611698565b6123b76040830184611698565b949350505050565b60006123ca8261168e565b91506123d58361168e565b92508282039050818111156123ed576123ec611efd565b5b92915050565b60006040820190506124086000830185611761565b6124156020830184611698565b9392505050565b6000602082019050818103600083015261243681846117c7565b90509291505056fea264697066735822122043c350601ed0f83b010eb4bb0577648e61c8d5ddaef015899880a8888f5d802a64736f6c63430008120033",
  "linkReferences": {},
  "deployedLinkReferences": {}
}